S0230000636F6E7461646F72375365675F496E74657272757063696F6E65732E7372656318
S11300000C9439000C944D000C9469000C944B0032
S11300100C944B000C944B000C944B000C944B0030
S11300200C944B000C944B000C944B000C944B0020
S11300300C944B000C944B000C944B000C944B0010
S11300400C944B000C944B000C944B000C944B0000
S11300500C944B000C944B000C944B000C944B00F0
S11300600C944B000C944B003F065B4F666D7D0770
S11300707F6711241FBECFEFD8E0DEBFCDBF21E0E4
S1130080A0E0B1E001C01D92A130B207E1F70E94E7
S113009085000C9493000C9400001F920F920FB6ED
S11300A00F921124EF93FF93E0910001E93010F4D3
S11300B0EF5F01C0E0E0E0930001F0E0E859FF4F9A
S11300C0E491E5B9FF91EF910F900FBE0F901F904F
S11300D018951F920F920FB60F921124EF93FF936E
S11300E0E0910001EE2311F0E15001C0E9E0E0935A
S11300F00001F0E0E859FF4FE491E5B9FF91EF9179
S11301000F900FBE0F901F9018951AB88FEF8BB9F0
S113011084B98AE08093690083E08DBB8FE385B95D
S10D012078940000FECFF894FFCF9E
S9030000FC
