:100000000C9434000C9451000C9451000C94510049
:100010000C9451000C9451000C9451000C9451001C
:100020000C9451000C9451000C9451000C9451000C
:100030000C9451000C9451000C9451000C945100FC
:100040000C9451000C9451000C9436010C94510006
:100050000C9451000C9451000C9451000C945100DC
:100060000C9451000C94510011241FBECFEFD8E026
:10007000DEBFCDBF11E0A0E0B1E0E6E9F5E002C0EF
:1000800005900D92AA34B107D9F721E0AAE4B1E0B6
:1000900001C01D92A039B207E1F70E9453000C94F1
:1000A000C9020C940000C2E0CAB988E084B90E9479
:1000B00065028CE090E09093C5008093C400C093EB
:1000C000C00088E98093C10086E08093C2007894E4
:1000D0000000FECFCF93DF93EC012881222389F02B
:1000E00030E0E0ECF0E046EC50E0908195FFFDCF91
:1000F000DA012C933F5FDE01A30FB11D2C9121117A
:10010000F4CFE0ECF0E0808185FFFDCF8DE08093BF
:10011000C600DF91CF910895FF920F931F93CF9365
:10012000DF938C01C62FD42F0E946E02813039F0EC
:10013000ECEBF0E080818068808380E047C080EA5B
:100140000E948202813021F00E94C00280E03EC005
:100150008D2F0E948202813021F00E94C00280E037
:1001600035C00E946E02813039F0ECEBF0E0808106
:100170008068808380E02AC081EA0E948202813008
:1001800011F00E94C002D0E021971C161D06A4F4B5
:10019000F12C61E0C8018F0D911D0E949C028130FD
:1001A00021F00E94C00280E011C0F3948F2D90E0F6
:1001B0008C179D0774F301C0F12C60E0C8018F0D0E
:1001C000911D0E949C020E94C00281E0DF91CF91AC
:1001D0001F910F91FF900895EF92FF920F931F933D
:1001E000CF93DF937C01D62FC42F0E946E02813003
:1001F00039F0ECEBF0E080818068808380E02FC0F4
:1002000080EA0E948202813021F00E94C00280E0D8
:1002100026C08C2F0E948202813019F4D11105C0B2
:100220001BC00E94C00280E01AC08701D1506D2F10
:1002300070E06F5F7F4FE701C60FD71FF801819114
:100240008F010E948202813021F00E94C00280E072
:1002500006C00C171D0791F70E94C00281E0DF91D4
:10026000CF911F910F91FF90EF9008951F920F92E1
:100270000FB60F9211242F933F934F935F936F9379
:100280007F938F939F93AF93BF93EF93FF9390913F
:10029000C60080914F01823009F457C028F48823AA
:1002A00051F08130E9F0F9C0833009F4A1C0843005
:1002B00009F4CFC0F2C010924A019F7D923521F41B
:1002C00081E080934F010AC0973521F483E0809349
:1002D0004F0104C080E091E00E946A0015B8E4C0BC
:1002E00081E085B980ED890F8A30C0F420914D01FD
:1002F00030914E01A901440F551F220F331F220FC9
:10030000331F220F331F240F351F290F311D205398
:10031000310930934E0120934D01C6C080914D01AB
:1003200090914E018F3F910561F058F088E191E086
:100330000E946A0010924F0110924E0110924D01DE
:10034000B3C082E080934F01AFC082E085B980EDF9
:10035000890F8A30C0F420914B0130914C01A901E2
:10036000440F551F220F331F220F331F220F331F3D
:10037000240F351F290F311D2053310930934C01B3
:1003800020934B0191C040914D0150914E016091DD
:100390004B0170914C01CA01860F971F8F3F910549
:1003A00031F028F088E191E00E946A0016C080E5F3
:1003B00091E00E948C00811105C087E291E00E94CB
:1003C0006A000BC0E0914B01F0914C01E05BFE4FE5
:1003D000108280E591E00E946A0010924C01109218
:1003E0004B0110924E0110924D0110924F015CC0D2
:1003F00083E085B980ED890F8A30C0F420914D01EA
:1004000030914E01A901440F551F220F331F220FB7
:10041000331F220F331F240F351F290F311D205387
:10042000310930934E0120934D013EC080914D0122
:1004300090914E018F3F910541F038F088E191E0B5
:100440000E946A0010924F012FC084E080934F01F8
:100450002BC084E085B9943259F080914A01E82F8D
:10046000F0E0E05BFE4F90838F5F80934A011CC0F9
:1004700040914D0160914A0180E591E00E94EC00BD
:10048000811104C08FE291E00E946A0010924F0136
:1004900010924E0110924D0107C010924F0115B8F5
:1004A00087E391E00E946A00FF91EF91BF91AF91C5
:1004B0009F918F917F916F915F914F913F912F917C
:1004C0000F900FBE0F901F90189582E08093B80098
:1004D0001092B90084E08093BC00089584EA809370
:1004E000BC00ECEBF0E080818823ECF78091B90050
:1004F000887F883019F0803119F0089581E00895DF
:1005000081E008958093BB0084E88093BC00ECEB0D
:10051000F0E080818823ECF78091B900887F8831F2
:1005200029F0883229F0803429F0089581E0089577
:1005300081E0089581E00895DC01662331F0ECEB61
:10054000F0E090819064908305C0ECEBF0E0908146
:100550009F7B9083ECEBF0E090819068908390819A
:100560009923ECF79091B900292F207F203519F0BD
:10057000892F887F08958091BB008C9381E0089536
:1005800084E98093BC00ECEBF0E0808184FDFDCF3A
:060590000895F894FFCF6E
:10059600436F6D616E646F206E6F206964656E7463
:1005A6006966696361646F0046756572612064659A
:1005B6002072616E676F004572726F72203100455E
:1005C60072726F7220320045737461646F20696EB7
:0A05D600657370657261646F0000C8
:00000001FF
