S0120000436F6D70617261646F722E737265630A
S11300000C9434000C943E000C943E000C943E007E
S11300100C943E000C943E000C943E000C943E0064
S11300200C943E000C943E000C943E000C943E0054
S11300300C943E000C943E000C943E000C943E0044
S11300400C943E000C943E000C943E000C943E0034
S11300500C943E000C943E000C943E000C943E0024
S11300600C943E000C943E0011241FBECFEFD8E048
S1130070DEBFCDBF0E9440000C9456000C940000DB
S113008017B81AB88FEF84B915B834E042E021E00C
S113009096B19F7089B18F70891710F425B9F8CF84
S11300A0981302C045B9F4CF35B9F2CFF894FFCF15
S9030000FC
