S0150000636F6E7461305F39395F494E542E73726563AF
S11300000C9439000C9467000C948B000C944B00F6
S11300100C944B000C944D000C944B000C944B002E
S11300200C944B000C944B000C944B000C944B0020
S11300300C944B000C944B000C944B000C944B0010
S11300400C944B000C944B000C944B000C944B0000
S11300500C944B000C944B000C944B000C944B00F0
S11300600C944B000C944B003F065B4F666D7D4730
S11300707F6711241FBECFEFD8E0DEBFCDBF21E0E4
S1130080A0E0B1E001C01D92A230B207E1F70E94E6
S11300909E000C94D0000C9400001F920F920FB697
S11300A00F9211248F93489905C010920101109268
S11300B0000107C0499905C089E08093010180933C
S11300C000018F910F900FBE0F901F9018951F92F3
S11300D00F920FB60F9211248F93809101018930F2
S11300E030F4809101018F5F809301010EC0109262
S11300F0010180910001893030F4809100018F5F0B
S11301008093000102C0109200018F910F900FBEE6
S11301100F901F9018951F920F920FB60F921124F3
S11301208F9380910101809101018150809301019D
S11301308F910F900FBE0F901F9018951AB88FEFE4
S113014084B987B98BB983E080936D0094E0909370
S113015068009AE0909369008DBB15B8789421E00B
S113016092E0E0910101F0E0E859FF4FE491E5B934
S113017028B9E1EEF4E03197F1F700C0000088B946
S1130180E0910001F0E0E859FF4FE491E5B998B936
S1130190E1EEF4E03197F1F700C0000088B9E1CF57
S10701A0F894FFCFFD
S9030000FC
