:100000000C9434000C943E000C943E000C943E0082
:100010000C943E000C943E000C943E000C943E0068
:100020000C943E000C943E000C943E000C943E0058
:100030000C943E000C943E000C943E000C943E0048
:100040000C943E000C943E000C943E000C943E0038
:100050000C943E000C943E000C943E000C943E0028
:100060000C943E000C943E0011241FBECFEFD8E04C
:10007000DEBFCDBF0E944B000C9481000C940000A9
:1000800084E190E0EFE3FCE93197F1F700C0000074
:100090000197C1F708958FEF87B9EE24E394689430
:1000A000FF24F1F804E018E0D0E1C0E218B80E94A3
:1000B0004000E8B80E944000F8B80E94400008B92B
:1000C0000E94400018B90E944000D8B90E94400028
:1000D000C8B90E944000C8B90E944000D8B90E9427
:1000E000400018B90E94400008B90E944000F8B8CA
:1000F0000E944000E8B80E94400018B80E944000EA
:06010000D5CFF894FFCFFB
:00000001FF
