S01C0000536572766F6D6F746F72446F73426F746F6E65732E73726563C8
S11300000C9434000C944B000C9478000C9449002C
S11300100C9449000C9449000C9449000C94490038
S11300200C9449000C9449000C9449000C94490028
S11300300C9449000C9449000C9449000C94490018
S11300400C9449000C9449000C9449000C94490008
S11300500C9449000C9449000C9449000C944900F8
S11300600C9449000C94490011241FBECFEFD8E032
S1130070DEBFCDBF11E0A0E0B1E0EAE8F1E002C0EC
S113008005900D92A230B107D9F70E94A5000C94F7
S1130090C3000C9400001F920F920FB60F9211240C
S11300A02F938F939F938091000190910101833846
S11300B023E0920739F483E398E09093010180935D
S11300C0000106C0845691099093010180930001B8
S11300D080910001909101019093890080938800A0
S11300E09F918F912F910F900FBE0F901F90189595
S11300F01F920F920FB60F9211242F938F939F93F9
S11301008091000190910101833328E0920739F432
S113011083E893E0909301018093000106C08C5919
S11301209F4F909301018093000180910001909171
S1130130010190938900809388009F918F912F9162
S11301400F900FBE0F901F9018958FEF84B98AE01F
S11301508093690083E08DBB8FE19EE490938700D8
S11301608093860082E88093800089E180938100F7
S1130170109282008BED95E0909389008093880023
S10D018078940000FECFF894FFCF3E
S105018ADB058F
S9030000FC
