:100000000C9434000C943E000C943E000C943E0082
:100010000C943E000C943E000C943E000C943E0068
:100020000C943E000C943E000C943E000C943E0058
:100030000C943E000C943E000C943E000C943E0048
:100040000C943E000C943E000C943E000C943E0038
:100050000C943E000C943E000C943E000C943E0028
:100060000C943E000C943E0011241FBECFEFD8E04C
:10007000DEBFCDBF0E9440000C9479000C940000BC
:100080008FEF84B98FE19EE4909387008093860080
:1000900082E88093800089E1809381001092820041
:1000A000E8E8F0E043E853E08BED95E023E338E047
:1000B00051834083AFE4B3EC1197F1F700C0000027
:1000C00091838083AFE4B3EC1197F1F700C0000097
:1000D00031832083AFE4B3EC1197F1F700C0000047
:1000E00091838083AFE4B3EC1197F1F700C0000077
:0600F000DFCFF894FFCF02
:00000001FF
