:100000000C943E000C9448000C9448000C9448005A
:100010000C9448000C9448000C9448000C94480040
:100020000C9448000C9448000C9448000C94480030
:100030000C9448000C9448000C9448000C94480020
:100040000C9448000C9448000C9448000C94480010
:100050000C9448000C9448000C9448000C94480000
:100060000C9448000C94480096009A009C009E0056
:10007000A000A200A400A600A800AA0011241FBE90
:10008000CFEFD8E0DEBFCDBF0E9455000C94B90081
:100090000C9400008FE090E0EFE3FCE93197F1F77A
:1000A00000C000000197C1F7089517B88FEF88B915
:1000B0008AB9C0E0D0E00F2EF7E68F2EF02D0F2E7C
:1000C000FFE39F2EF02D0F2EFFE7AF2EF02D0F2E0A
:1000D000F7E4BF2EF02D0F2EFDE7CF2EF02D0F2EC3
:1000E000FDE6DF2EF02D0F2EF6E6EF2EF02D0F2E73
:1000F000FFE4FF2EF02D0BE516E096B186B182707D
:1001000090FF04C0CA30D1055CF52196823031F4ED
:10011000DD231CF41FC0C0E0D0E02197CA30D10518
:10012000E0F4FE01EC5CFF4F0C94B3009BB8C0E020
:10013000D0E013C01BB911C00BB90FC0FBB80DC084
:10014000EBB80BC0DBB809C0CBB807C0BBB805C063
:10015000ABB803C08BB8C9E0D0E00E944A00CDCF55
:10016000823021F7D8CFEE0FFF1F0590F491E02DDC
:060170000994F894FFCF92
:00000001FF
