S01500004441435F55534152545F5350492E737265630E
S11300000C9434000C9446000C9446000C94460066
S11300100C9446000C9446000C9446000C94460044
S11300200C9446000C9446000C9446000C94460034
S11300300C9446000C9446000C9446000C94460024
S11300400C9446000C9446000C9448000C94460012
S11300500C9446000C9446000C9446000C94460004
S11300600C9446000C94460011241FBECFEFD8E038
S1130070DEBFCDBF21E0A0E0B1E001C01D92A530FC
S1130080B207E1F70E948E000C94C4000C940000A7
S11300901F920F920FB60F9211242F933F934F93F9
S11300A05F938F939F938091C60090E09C012053AF
S11300B031092A303105B8F420910301309104014B
S11300C0A901440F551F220F331F220F331F220F84
S11300D0331F240F351F280F391F20533109309344
S11300E00401209303010D9771F480910301909111
S11300F00401909302018093010110920401109273
S11301000301109200019F918F915F914F913F9154
S11301102F910F900FBE0F901F9018951AB88CE274
S113012084B984E085B980E58CBD81E08DBD87E626
S113013090E09093C5008093C4001092C00088E9B9
S11301408093C10086E08093C2007894809101017D
S113015090910201813020E29207E0F7811520E1BD
S1130160920718F4292F206102C0292F20632A98AE
S11301702EBD0DB407FEFDCF9EB58EBD0DB407FE9A
S10F0180FDCF8EB52A9AE2CFF894FFCF91
S9030000FC
