S00F00004D61657374726F2E737265633A
S11300000C9434000C943E000C943E000C943E007E
S11300100C946B000C943E000C943E000C943E0037
S11300200C943E000C943E000C943E000C943E0054
S11300300C943E000C943E000C943E000C943E0044
S11300400C943E000C943E000C943E000C943E0034
S11300500C943E000C943E000C943E000C943E0024
S11300600C943E000C943E0011241FBECFEFD8E048
S1130070DEBFCDBF0E9440000C94A6000C9400008B
S11300801AB88FE284B917B88FEF8BB987E088B9B3
S113009085B980E58CBD81E08DBD84E080936C00E2
S11300A082E08093680078940000FECF21E030E085
S11300B002C0220F331F6A95E2F795B1422F409593
S11300C0942395B98EBD0DB407FEFDCF85B1282BC1
S11300D025B98EB508951F920F920FB60F92112471
S11300E02F933F934F935F936F937F938F939F933C
S11300F0AF93BF93CF93EF93FF93329915C066B13B
S11301006370C9B1633020F48C2F0E9456000CC078
S113011060E08C2F0E94560061E08C2F0E945600F4
S113012062E08C2F0E945600FF91EF91CF91BF9116
S1130130AF919F918F917F916F915F914F913F917B
S11301402F910F900FBE0F901F901895F894FFCF2A
S9030000FC
