S01D000047656E657261646F72324672656375656E636961732E73726563D6
S11300000C9434000C943E000C943E000C943E007E
S11300100C943E000C943E000C943E000C943E0064
S11300200C943E000C943E000C943E000C943E0054
S11300300C943E000C943E000C943E000C943E0044
S11300400C943E000C943E000C943E000C943E0034
S11300500C943E000C943E000C943E000C943E0024
S11300600C943E000C943E0011241FBECFEFD8E048
S1130070DEBFCDBF0E9440000C9458000C940000D9
S11300808FEF8AB984B91BB815B883E687BD82E4BB
S113009084BD81E085BD27EE33E030938900209351
S11300A0880098E490938000809381000000FECF44
S10700B0F894FFCFEE
S9030000FC
