S01C000055534152545F656E7669615F63617261637465722E7372656363
S11300000C9434000C944B000C9449000C9449005B
S11300100C9449000C9449000C9449000C94490038
S11300200C9449000C9449000C9449000C94490028
S11300300C9449000C9449000C9449000C94490018
S11300400C9449000C9449000C946D000C944900E4
S11300500C9449000C9449000C9449000C944900F8
S11300600C9449000C94490011241FBECFEFD8E032
S1130070DEBFCDBF11E0A0E0B1E0E2E3F1E002C0F9
S113008005900D92A230B107D9F70E947C000C9420
S113009097000C9400001F920F920FB60F92112438
S11300A08F93EF93FF93E0ECF0E0808185FFFDCF29
S11300B0809100018093C600809100018E3711F079
S11300C08F5F01C080E280930001FF91EF918F91D7
S11300D00F900FBE0F901F9018951F920F920FB69E
S11300E00F9211248F938091C60085B98F910F9040
S11300F00FBE0F901F90189582E08AB994E09BB9C7
S11301009FEF94B98093690081E08DBB8CE090E00F
S11301109093C5008093C4001092C00088E9809336
S1130120C10086E08093C20078940000FECFF8946A
S1050130FFCFFB
S10501322000A7
S9030000FC
