S0140000746F6E6F5661726961626C652E737265632A
S11300000C9434000C9448000C9446000C94460064
S11300100C9446000C9446000C9446000C94460044
S11300200C9446000C9468000C9446000C94460012
S11300300C9446000C9446000C9446000C94460024
S11300400C9446000C9446000C9446000C94460014
S11300500C9446000C9446000C9446000C94460004
S11300600C9446000C94460011241FBECFEFD8E038
S1130070DEBFCDBF21E0A0E0B1E001C01D92A13000
S1130080B207E1F70E9490000C94B2000C940000B7
S11300901F920F920FB60F9211248F934A9907C0A3
S11300A089E08093810084E08093B1000BC015B88F
S11300B0109281001092B100109285001092840079
S11300C01092B2008F910F900FBE0F901F90189551
S11300D01F920F920FB60F9211248F939F938091CA
S11300E0000181110EC0109285001092840087E3F4
S11300F092E0909389008093880081E080930001CE
S113010008C08FE694E09093890080938800109251
S113011000019F918F910F900FBE0F901F90189523
S113012082E084B91AB88FEF8BB981E080936900BB
S11301308DBB2FE634E0309389002093880090E44F
S113014090938000109281001092820090E290932C
S1130150B6001092B0001092B100809370007894B1
S10B01600000FECFF894FFCF6C
S9030000FC
