:100000000C9434000C9446000C9446000C9446006A
:100010000C9446000C9446000C9446000C94460048
:100020000C9446000C9446000C9446000C94460038
:100030000C9446000C9446000C9446000C94460028
:100040000C9446000C9446000C9448000C94460016
:100050000C9446000C9446000C9446000C94460008
:100060000C9446000C94460011241FBECFEFD8E03C
:10007000DEBFCDBF21E0A0E0B1E001C01D92A13004
:10008000B207E1F70E946D000C9480000C94000010
:100090001F920F920FB60F9211248F93EF93FF933D
:1000A0008091C600843261F4E0ECF0E0808185FF4D
:1000B000FDCF809100018093C6001092000105C021
:1000C000809100018F5F80930001FF91EF918F91EC
:1000D0000F900FBE0F901F90189582E08AB98CE0A8
:1000E00090E09093C5008093C4001092C00088E90E
:1000F0008093C10086E08093C20078940000FECF18
:04010000F894FFCFA1
:00000001FF
