:100000000C9434000C943E000C943E000C943E0082
:100010000C943E000C943E000C943E000C943E0068
:100020000C943E000C943E000C943E000C943E0058
:100030000C943E000C943E000C943E000C943E0048
:100040000C943E000C9440000C943E000C943E0036
:100050000C943E000C943E000C943E000C943E0028
:100060000C943E000C943E0011241FBECFEFD8E04C
:10007000DEBFCDBF0E944E000C9458000C940000CF
:100080001F920F920FB60F9211248F938EB58BB9DA
:100090008F910F900FBE0F901F90189580E184B93B
:1000A0008FEF8AB980EC8CBD1DBC78940000FECF28
:0400B000F894FFCFF2
:00000001FF
