:100000000C9434000C943E000C943E000C943E0082
:100010000C943E000C943E000C943E000C943E0068
:100020000C943E000C943E000C943E000C943E0058
:100030000C943E000C943E000C943E000C943E0048
:100040000C943E000C943E000C943E000C943E0038
:100050000C943E000C9440000C943E000C943E0026
:100060000C943E000C943E0011241FBECFEFD8E04C
:10007000DEBFCDBF0E947B000C94BE010C9400003B
:100080001F920F920FB60F9211242F933F934F930D
:100090005F936F937F938F939F93AF93BF93EF93F0
:1000A000FF93609178007091790080E090E00E9469
:1000B000C3002EE432E64CE151E40E9429010E9483
:1000C00094007093890060938800EAE7F0E08081F3
:1000D00080648083FF91EF91BF91AF919F918F9149
:1000E0007F916F915F914F913F912F910F900FBE34
:1000F0000F901F9018958FEF84B910927C008BECB5
:1001000080937A0081E080937E008FE097E2909365
:1001100087008093860082E88093800089E1809345
:10012000810078940000FECF0E94080188F09F575C
:1001300098F0B92F9927B751B0F0E1F0660F771F0B
:10014000881F991F1AF0BA95C9F714C0B13091F001
:100150000E942201B1E008950C942201672F782FAC
:100160008827B85F39F0B93FCCF3869577956795C6
:10017000B395D9F73EF490958095709561957F4F32
:100180008F4F9F4F0895E89409C097FB3EF49095D8
:100190008095709561957F4F8F4F9F4F9923A9F060
:1001A000F92F96E9BB279395F695879577956795EF
:1001B000B795F111F8CFFAF4BB0F11F460FF1BC033
:1001C0006F5F7F4F8F4F9F4F16C0882311F096E9C6
:1001D00011C0772321F09EE8872F762F05C0662374
:1001E00071F096E8862F70E060E02AF09A95660F2D
:1001F000771F881FDAF7880F9695879597F90895E6
:1002000057FD9058440F551F59F05F3F71F04795C7
:10021000880F97FB991F61F09F3F79F087950895AC
:10022000121613061406551FF2CF4695F1DF08C0CB
:10023000161617061806991FF1CF869571056105E8
:1002400008940895E894BB2766277727CB0197F990
:1002500008950E943C010C94AD010E949F0138F06A
:100260000E94A60120F0952311F00C9496010C94A5
:100270009C0111240C9423010E94000170F3959FAE
:10028000C1F3950F50E0551F629FF001729FBB278D
:10029000F00DB11D639FAA27F00DB11DAA1F649F29
:1002A0006627B00DA11D661F829F2227B00DA11DDC
:1002B000621F739FB00DA11D621F839FA00D611D62
:1002C000221F749F3327A00D611D231F849F600D83
:1002D000211D822F762F6A2F11249F5750409AF0AC
:1002E000F1F088234AF0EE0FFF1FBB1F661F771F38
:1002F000881F91505040A9F79E3F510580F00C9403
:1003000096010C9423015F3FE4F3983ED4F3869565
:1003100077956795B795F795E7959F5FC1F7FE2BA2
:10032000880F911D9695879597F9089597F99F677E
:1003300080E870E060E008959FEF80EC089500246D
:100340000A941616170618060906089500240A943A
:1003500012161306140605060895092E0394000CC0
:1003600011F4882352F0BB0F40F4BF2B11F460FF4F
:1003700004C06F5F7F4F8F4F9F4F0895F894FFCF5A
:00000001FF
