:100000000C9443000C9458000C9458000C94580025
:100010000C9458000C9458000C9458000C94580000
:100020000C9458000C9458000C9458000C945800F0
:100030000C9458000C9458000C9458000C945800E0
:100040000C9458000C9458000C9458000C945800D0
:100050000C9458000C9458000C9458000C945800C0
:100060000C9458000C9458007303750377037903BC
:100070007B037D037F038103830385038703890358
:100080008B038D038F0311241FBECFEFD8E0DEBF9B
:10009000CDBF11E0A0E0B1E0E8EBF9E002C00590CF
:1000A0000D92AA30B107D9F70E9492030C94DA049A
:1000B0000C940000449A449808958F7088B90E9467
:1000C0005A000895CF93C82F82958F700E945D00CB
:1000D0008C2F8F700E945D008DE08A95F1F70000F3
:1000E000CF910895CF93C82F82958F70806288B981
:1000F0000E945A00CF70C062C8B90E945A008DE0B9
:100100008A95F1F70000CF91089581E00E94620086
:1001100083EF91E00197F1F700C00000089585EAB0
:100120009EE00197F1F700C0000083E00E945D00AF
:1001300080E094E00197F1F700C0000083E00E94A6
:100140005D0091E29A95F1F7000083E00E945D0066
:100150008DE08A95F1F7000082E00E945D009DE04D
:100160009A95F1F7000088E20E9462008CE00E94FC
:1001700062000E94850086E00E9462000895982F28
:100180009F70807F29F4892F80680E946200089503
:10019000892F806C0E9462000895FF920F931F9335
:1001A000CF93DF93F82EC92FD62F0E948500D1114F
:1001B0000FC017C0F80181918F010E947200CF30EB
:1001C00019F480E10E94BF00CF5FDC13F3CF09C0B8
:1001D0000F2D1C2FF80181918F010E947200C0E049
:1001E000F3CFDF91CF911F910F91FF900895EF9280
:1001F000FF920F931F93CF93DF93EC018B017A0152
:1002000081E00E94BF0064E1C7010E94CD0086E149
:100210000E94BF000130110529F461E088E091E0FF
:100220000E94CD00CA30D10528F48C2F805D0E9439
:100230007200CDC1CE010A978A359105C8F59E019D
:10024000ADECBCEC0E94A5048C01169507951695A3
:1002500007951695079598010E94A5049695879590
:1002600096958795969587959C01220F331F880F49
:10027000991F880F991F880F991F820F931F98014C
:10028000281B390BC901805D0E947200C801880FCC
:10029000991F000F111F000F111F000F111F080FD2
:1002A000191FCE01801B910B805D0E9472008FC1CF
:1002B000CE01845691098438934008F047C09E01CE
:1002C0003695279536952795ABE7B4E10E94A504AE
:1002D00096958795805D0E9472009E01ADECBCEC06
:1002E0000E94A5048C0116950795169507951695FD
:1002F000079598010E94A5049695879596958795F0
:10030000969587959C01220F331F880F991F880FA0
:10031000991F880F991F820F931F9801281B390B73
:10032000C901805D0E947200C801880F991F000FEB
:10033000111F000F111F000F111F080F191FCE01F1
:10034000801B910B805D0E94720041C1CE01885ECE
:1003500093408832934208F091C09E0136952795CC
:100360003695279536952795A5ECB0E20E94A50411
:10037000AC01529542954F7045275F7045279A0111
:10038000ADECBCEC0E94A504969587959695879553
:10039000969587959C01220F331F880F991F880F10
:1003A000991F880F991F820F931F9A01281B390BE1
:1003B000C901805D0E9472009E0136952795369591
:1003C0002795ABE7B4E10E94A504AC01569547958B
:1003D0009A01ADECBCEC0E94A50496958795969584
:1003E0008795969587959C01220F331F880F991F3B
:1003F000880F991F880F991F820F931F9A01281B3E
:10040000390BC901805D0E9472009E01ADECBCEC0D
:100410000E94A5048C0116950795169507951695CB
:10042000079598010E94A5049695879596958795BE
:10043000969587959C01220F331F880F991F880F6F
:10044000991F880F991F820F931F9801281B390B42
:10045000C901805D0E947200C801880F991F000FBA
:10046000111F000F111F000F111F080F191FCE01C0
:10047000801B910B805D0E947200A9C0C03137E2E1
:10048000D30708F4A4C09E01329522952F7023272C
:100490003F702327A7E4B3E00E94A50496958795B3
:1004A0009695879596958795805D0E9472009E012E
:1004B000369527953695279536952795A5ECB0E284
:1004C0000E94A504AC01529542954F7045275F707C
:1004D00045279A01ADECBCEC0E94A5049695879542
:1004E00096958795969587959C01220F331F880FC7
:1004F000991F880F991F880F991F820F931F9A01C8
:10050000281B390BC901805D0E9472009E0136953F
:10051000279536952795ABE7B4E10E94A504AC0179
:10052000569547959A01ADECBCEC0E94A5049695B2
:10053000879596958795969587959C01220F331FF1
:10054000880F991F880F991F880F991F820F931F7B
:100550009A01281B390BC901805D0E9472009E011F
:10056000ADECBCEC0E94A5048C0116950795169580
:1005700007951695079598010E94A504969587956D
:1005800096958795969587959C01220F331F880F26
:10059000991F880F991F880F991F820F931F980129
:1005A000281B390BC901805D0E947200C801880FA9
:1005B000991F000F111F000F111F000F111F080FAF
:1005C000191FCE01801B910B805D0E947200DF918C
:1005D000CF911F910F91FF90EF900895DC0144306F
:1005E00079F018F4442331F028C0483099F04C30A9
:1005F000F9F023C00E948B04CB0160E070E021C0C1
:10060000A69FC001A79F900DB69F900D112460E09A
:1006100070E017C08617970728F0861B970B60E0DD
:1006200070E00FC0CB018A1B9B0B61E070E009C03A
:10063000860F971F60E070E004C060E070E080E02B
:1006400090E0A9010E94F7000895CF93DF93CDB702
:10065000DEB728970FB6F894DEBF0FBECDBF88E097
:10066000E0E0F1E0DE01119601900D928A95E1F74C
:10067000FE01319620E030E08081329685B900009D
:1006800093B1907F903FA1F0903B61F018F49037C8
:1006900061F00EC0903D19F0903E91F009C0C90183
:1006A00001960FC0C90102960CC0C901039609C08A
:1006B0002C5F3F4F20313105F9F68FEF90E001C0FC
:1006C000C90128960FB6F894DEBF0FBECDBFDF91EB
:1006D000CF91089590E08F30910510F5FC01EC5C0E
:1006E000FF4F0C949F042FE21BC029E319C028E39D
:1006F00017C027E315C028E713C026E311C025E380
:100700000FC024E30DC02DE20BC023E309C022E398
:1007100007C021E305C02BE203C02DE301C020E3A5
:10072000822F0895CF93DF93CDB7DEB76D970FB6C5
:10073000F894DEBF0FBECDBF8FE084B980EF85B9DE
:100740008FEF87B91AB88BB90E948F0000E010E0D4
:10075000812C912CC12CD12C1C8E412CE12CF12C04
:100760001D8ECE0101965C011E0195E1290E311C02
:10077000512C612C02C001E010E00E942503782E6C
:10078000EFEF8E17D1F3FFE08F1317C084E1F5016F
:1007900011928A95E9F7F10187E011928A95E9F7BC
:1007A0000E948500052D162D812C912CC12CD12C59
:1007B0005C8E462CE52CF62CE0CF0115110559F581
:1007C0008B7F8150833038F087EF870D833018F0AE
:1007D0009EE07912D0CFEFEFEE16FE0671F2872D74
:1007E0000E946A03F501EC0DFD1D8083C5010E9486
:1007F000B4047C0181E00E94BF0064E1C5010E9455
:10080000CD008FE493EC0197F1F700C000009FEF5B
:10081000C91AD90AB2CF8B7F11F08830D9F40130D0
:100820001105C1F4872D0E946A03F501EC0DFD1D31
:10083000808381E00E94BF0064E1C5010E94CD0079
:10084000EFE4F3EC3197F1F700C000007D8E02E099
:1008500010E093CF02301105C9F58150833038F094
:1008600087EF870D833018F0FEE07F1229C08FEFED
:10087000E816F80609F481CF9FEFC91AD90A872D27
:100880000E946A03F501EC0DFD1D8083F101E80D66
:10089000F91D8083C1010E94B4048C8F492EEFEFB3
:1008A0008E1A9E0A81E00E94BF0064E1C5010E9489
:1008B000CD008FE493EC0197F1F700C000005DCF0D
:1008C0009FEFC91AD90A03E010E057CF0330110592
:1008D00009F053CFEDE07E1250CF8DE00E946A0305
:1008E000F501EC0DFD1D808381E00E94BF0064E1F5
:1008F000C5010E94CD008FE493EC0197F1F700C091
:10090000000095014D8D6C8D742DC7010E94EE0283
:1009100004E010E032CFAA1BBB1B51E107C0AA1FA5
:10092000BB1FA617B70710F0A61BB70B881F991F90
:100930005A95A9F780959095BC01CD010895EE0FC9
:10094000FF1F0590F491E02D0994A29FB001B39F81
:10095000C001A39F700D811D1124911DB29F700DC8
:10096000811D1124911D0895FC0188279927E89481
:1009700021912032E9F3293010F02E30C8F32B32C8
:1009800041F02D3239F4689404C00E94D204820FE1
:10099000911D219120532A30C0F31EF4909581952A
:1009A0009F4F08957AE0979F902D879F802D910DFE
:0809B00011240895F894FFCF13
:0A09B800FE00FD00FB00F7002D001B
:00000001FF
